:020000040800F2
:1000000000200020B90000081D1400083114000869
:1000100000000000000000000000000000000000E0
:100020000000000000000000000000001D14000897
:1000300000000000000000001D1400081D1400084E
:100040001D1400081D1400081D1400081D140008CC
:100050001D1400081D1400081D1400081D140008BC
:10006000000000001D1400081D1400081D140008E5
:100070001D1400081D1400080000000019050008E8
:1000800000000000850500080000000000000000DE
:100090001D140008000000001D1400081D140008B5
:1000A0001D1400081D1400081D1400084D0F000841
:1000B000451A00081D14000801F02CF901F0EEF8B3
:1000C000E1235B02180000F099FE62B6C04600F022
:1000D0008BFB024B180001F001F8FEE7787B00086B
:1000E00080B582B000AF0200FB1D1A70FB1D1B78AB
:1000F0007F2B09D8FB1D1B781A001F231A40044BC5
:10010000012191400A001A60C046BD4602B080BD80
:1001100000E100E080B584B000AFF860B9607A60BB
:10012000FB681968BB685B431A0013005B009B18EF
:10013000DB430B401A00BB685B4379684B431A43AF
:10014000FB681A60C046BD4604B080BD80B584B06F
:1001500000AFF860B9607A60FB689968BB685B4380
:100160001A0013005B009B18DB430B401A00BB68AE
:100170005B4379684B431A43FB689A60C046BD46AF
:1001800004B080BD80B584B000AFF860B9607A601B
:10019000FB68D968BB685B431A0013005B009B18BF
:1001A000DB430B401A00BB685B4379684B431A433F
:1001B000FB68DA60C046BD4604B080BD80B582B041
:1001C00000AF786039607B681B693A6813403A6811
:1001D000D31A5A425341DBB21800BD4602B080BD6B
:1001E00080B582B000AF786039607B683A689A6108
:1001F000C046BD4602B080BD80B582B000AF786019
:1002000039607B683A689A62C046BD4602B080BDDC
:1002100080B582B000AF78607B681B6801221A430A
:100220007B681A60C046BD4602B080BD80B582B012
:1002300000AF786039607B683A689A62C046BD4614
:1002400002B080BD80B582B000AF786039607B6855
:100250003A68DA62C046BD4602B080BD80B582B061
:1002600000AF786039607B681A6A3B681A437B6824
:100270001A62C046BD4602B080BD80B586B000AFF0
:10028000F860B9607A60BB68012B0DD0BB68102B99
:1002900008D0BA6880235B009A4201D1042304E0AD
:1002A000062302E0022300E0002317203A1813700F
:1002B000FB68183319003B181B780E4AD35CCB1827
:1002C0003B613B691B683A1812780B498A5C110044
:1002D00003228A40D2431A407B681B0C39180978E4
:1002E0000548415C8B401A433B691A60C046BD46D5
:1002F00006B080BD447A0008547A000880B582B008
:1003000000AF78607B68022252421A61C046BD4647
:1003100002B080BD80B582B000AF78607B681B6999
:1003200001221340012B01D1012300E0002318001A
:10033000BD4602B080BD80B582B000AF78607B68FA
:10034000032252421A61C046BD4602B080BD80B54C
:1003500082B000AF78607B681B6902221340022BD9
:1003600001D1012300E000231800BD4602B080BD8A
:1003700080B582B000AF78607B68DB6801221A43E9
:100380007B68DA60C046BD4602B080BD80B582B0F1
:1003900000AF78607B68DB6802221A437B68DA6012
:1003A000C046BD4602B080BD80B584B000AF786065
:1003B000074B996B064B7A680A439A63044B9B6B15
:1003C0007A681340FB60FB68C046BD4604B080BD40
:1003D0000010024080B584B000AF7860074BD96A46
:1003E000064B7A680A43DA62044BDB6A7A68134088
:1003F000FB60FB68C046BD4604B080BD00100240F3
:1004000080B500AF0120FFF7E5FFA023DB05032245
:1004100004211800FFF79AFEA023DB050322082120
:100420001800FFF793FEA023DB050322102118001C
:10043000FFF78CFEA023DB05022204211800FFF742
:10044000A1FEA023DB05022208211800FFF79AFE77
:10045000A023DB05012210211800FFF75BFEA0237B
:10046000DB0510211800FFF7BBFEC046BD4680BD6E
:1004700080B500AF0120FFF797FF254A8023DB05F9
:1004800011001800FFF7DEFE8023DB051F21180096
:10049000FFF7CCFE80235A028023DB0501211800E0
:1004A000FFF7EBFE8023DB0501211800FFF7D6FEE6
:1004B0008023DB051800FFF769FF8023DB051800A8
:1004C000FFF7A6FE0F20FFF70BFE1020FFF76CFFD3
:1004D000104B1F211800FFF7A9FE0D4A0D4B11000C
:1004E0001800FFF7AFFE0B4B1800FFF707FF094B93
:1004F0001800FFF73DFF074B1800FFF789FE11209A
:10050000FFF7EEFD62B6C046C046BD4680BDC046A0
:10051000E70300000010004080B500AF8023DB053A
:100520001800FFF714FF031E09D08023DB05180015
:10053000FFF701FF034B1B685A1C024B1A60C046B1
:10054000BD4680BDD401002080B582B000AF00233D
:100550007B60094B1B68094A5343180001F02AFECF
:10056000031C191C064801F00DFD031C7B607B6811
:10057000181CBD4602B080BDD401002088130000C5
:1005800000C8AF4980B500AF604B1800FFF7C2FE4E
:10059000031E00D1B6E05D4B1800FFF7AFFE5C4BC9
:1005A0001B685A1C5A4B1A605A4B1B685A1C594BF1
:1005B0001A60574B1A68FA239B009A421EDB544B71
:1005C00000221A60544B1B68544A934205DD544A7A
:1005D000137802210B43137004E0514A137802216F
:1005E0008B431370FFF7B0FF021C4E4B1A604A4B4F
:1005F0001A684D4B1A60484B00221A60454B1B6825
:10060000F92B07DD464A137801210B431370414B48
:1006100000221A60A023DB0520211800FFF7CEFD81
:10062000031E26D0414B1B681D2B1EDD3C4B1B7847
:100630005B07DB0FDBB201225340DBB25A1E934152
:10064000D9B2374A137801200140880004218B4336
:10065000191C031C0B431370314A137801210B43FF
:100660001370324B00221A6010E0304B00221A60E7
:100670000CE0A023DB0520211800FFF79FFD031EDF
:1006800004D12A4B1B685A1C284B1A60A023DB0597
:1006900080211800FFF792FD031E26D0244B1B6813
:1006A0001D2B1EDD1E4B1B781B07DB0FDBB201224F
:1006B0005340DBB25A1E9341D9B2194A1378012034
:1006C0000140C80008218B43191C031C0B43137005
:1006D000134A137801210B431370154B00221A6043
:1006E00010E0134B00221A600CE0A023DB058021F0
:1006F0001800FFF763FD031E04D10D4B1B685A1C45
:100700000B4B1A60C046BD4680BDC046001000407D
:10071000EC010020F0010020D4010020C8200300DB
:10072000E8010020D8010020DC010020E0010020C9
:10073000E401002090B58DB000AF78607A68154B69
:100740001100180002F024FAA023DB051021180084
:10075000FFF752FD0A2000F043F97B68180001F012
:1007600039FA08243B192721180001F06DFAA0235B
:10077000DB0510211800FFF733FD0A2000F030F9E7
:100780003A19054B1100180002F002FAC046BD46A6
:100790000DB090BD647A0008707A000880B500AF93
:1007A000A023DB0510211800FFF726FD0A2000F02A
:1007B00017F90C4B180001F00DFA0A2000F010F99F
:1007C000A023DB0510211800FFF70AFD01E001F06E
:1007D0002EFA01F07FFA031EF9DCC046C046BD4682
:1007E00080BDC046807A0008B0B5A4B000AF002339
:1007F0008C22BA18136000238822BA1813600023D1
:100800008422BA18136064238022BA181360FFF799
:10081000F7FD00F003FAFFF72BFE494B180002F03A
:1008200043FA484B01220121180000F01FFA454B02
:1008300001220221180000F019FA434A1378082116
:100840008B431370404A137804218B431370962313
:100850009B01180001F06AF8FA239B00180000F0D1
:10086000BFF83A4B180002F01FFAFFF797FF384B1A
:100870001800FFF75FFF374B1800FFF75BFF364BA1
:100880001800FFF757FF354B1800FFF753FF344BA5
:100890001800FFF74FFF334B1800FFF74BFF324BA9
:1008A0001800FFF747FF314B1800FFF743FF304BAD
:1008B0001800FFF73FFF01F00DFA031EFBDD7F2557
:1008C0007C1901F0B4F9030023707B191B78212BEC
:1008D00019D10C243B194F21180001F0B5F9220061
:1008E000BB181B78002B06D0BA18224B1100180039
:1008F00002F04EF9DFE70C23FA181F4B1100180025
:1009000002F046F9D7E77F23FB181B78402BD2D1A2
:100910008C243B191A6819490C257B19180002F020
:10092000E9F92200BB181B680133BA1813600520CF
:1009300000F056F87B19180001F04CF9BBE7C046EF
:10094000907A00089C7A0008E8010020A87A000844
:10095000D07A0008DC7A0008E87A0008F47A000807
:10096000007B00080C7B0008187B0008247B000833
:10097000347B0008407B0008547B0008707B000833
:1009800080B582B000AF0200FB1D1A70FB1D1B7802
:100990001900104801F00AFA030019000E4801F08E
:1009A00005FA03005A1E0D4B5A600C4B00229A6048
:1009B0000A4B05221A60C046084B1A6880235B0266
:1009C0001340F9D0054B00221A60C046BD4602B064
:1009D00080BDC04640420F000048E80110E000E042
:1009E00080B584B000AF78600023FB6015E00B2376
:1009F000FB1800221A7008E0FA20FFF7C1FF0B2154
:100A00007B181A787B1801321A700B23FB181B789D
:100A1000032BF1D9FB680133FB60FA687B689A42CB
:100A2000E5D3C046C046BD4604B080BD80B500AF2A
:100A3000A023DB055A69A023DB05802109010A43B5
:100A40005A610520FFF79CFFA023DB055A69A0230C
:100A5000DB0503490A405A61C046BD4680BDC04619
:100A6000FFF7FFFF80B582B000AF0200FB1D1A70D8
:100A7000FB1D1B785BB2002B06DA4B4B5A694A4BC5
:100A800040210A435A6105E0474B5A69464B4021D1
:100A90008A435A61FB1D1B784022134006D0424B0B
:100AA0005A69414B20210A435A6105E03E4B5A697D
:100AB0003D4B20218A435A61FB1D1B7820221340A5
:100AC00006D0394B5A69384B10210A435A6105E068
:100AD000354B5A69344B10218A435A61FB1D1B78F0
:100AE0001022134006D0304B5A692F4B08210A437D
:100AF0005A6105E02C4B5A692B4B08218A435A61F5
:100B0000FFF794FF0520FFF73BFFFB1D1B78082232
:100B1000134006D0244B5A69234B40210A435A61A3
:100B200005E0214B5A69204B40218A435A61FB1D45
:100B30001B780422134006D01B4B5A691A4B202104
:100B40000A435A6105E0184B5A69174B20218A4322
:100B50005A61FB1D1B780222134006D0124B5A69C2
:100B6000114B10210A435A6105E00F4B5A690E4B95
:100B700010218A435A61FB1D1B780122134006D0C5
:100B8000094B5A69084B08210A435A6105E0064B94
:100B90005A69054B08218A435A61FFF747FFC0464F
:100BA000BD4602B080BDC0460004005080B582B092
:100BB00000AF0200FB1D1A70A023DB055A69A023B9
:100BC000DB05802149000A435A61FB1D1B78180090
:100BD000FFF748FF2520FFF7D3FEC046BD4602B011
:100BE00080BD80B582B000AF0200FB1D1A70A0234B
:100BF000DB055A69A023DB0507490A405A61FB1D42
:100C00001B781800FFF72EFF2520FFF7B9FEC0461E
:100C1000BD4602B080BDC046FFFEFFFF80B500AFFD
:100C2000A023DB055A69A023DB050F490A405A615E
:100C30000F20FFF7D5FE3320FFF7D3FF3320FFF758
:100C4000D0FF3220FFF7CDFF2820FFF7CAFF0C208E
:100C5000FFF7C7FF0120FFF7C4FF0F20FFF7C0FE1B
:100C6000C046BD4680BDC046FFF7FFFF80B584B0DB
:100C700000AF786008001100FB1C021C1A70BB1C3E
:100C80000A1C1A70FB1C1B78022B01D1C02300E048
:100C900080231800FFF7A5FF2520FFF771FE002332
:100CA000FB6009E0FB687A68D3181B781800FFF72F
:100CB0007DFFFB680133FB60FB687A68D3181B7803
:100CC000002BEFD1BB1C1B78002B09D005E02020A6
:100CD000FFF76CFFFB680133FB60FB680F2BF6DD51
:100CE000C046BD4604B080BD90B585B000AF786009
:100CF0003960184B1B68002B02D101235B4224E0B2
:100D00000023FB600AE0FB685A1CFA603A68D418BA
:100D1000114B180000F0ADF9030023707B68013B14
:100D20001A00FB68934205D20B4B180000F0CCF977
:100D3000031EE8D1FB68002B06D03A68FB68D31885
:100D400000221A70FB6800E000231800BD4605B0C1
:100D500090BDC0468C020020F401002080B584B014
:100D600000AF78603960224B1B68002B02D1012351
:100D70005B4238E07B683F2B0BDCC0461D4B180004
:100D800000F0A2F903004022D21A7B689A42F5D300
:100D900002E002235B4226E00023FB600BE03A689E
:100DA000FB68D3181A78134B1100180000F030F9C3
:100DB000FB680133FB607B68FA689A42EFD30E4B05
:100DC0001B68082213400DD10B4B1A680A4B0821EF
:100DD0000A431A60074B180000F04BF903001A0091
:100DE000054B9A6200231800BD4604B080BDC04682
:100DF0008C020020400200200038014080B584B001
:100E000000AF786072B6C046454B00229A64444BEE
:100E10009A6C434B5A64424B5A6C414B1A64414B97
:100E200000229A643F4B9A6C3E4B5A643D4B5A6C7D
:100E30003C4B1A643C4B01221A603C4B00221A6066
:100E40003B4BDA6A3A4B01210A43DA62394BFB60C9
:100E50007968F86800F0AAFF0300FB60A023DB05B7
:100E60009A68A023DB058021C9020A439A60A02367
:100E7000DB055A68A023DB052F490A405A60A023EE
:100E8000DB051B682D4A1A40A023DB0580210903DE
:100E90000A431A60A023DB055A6AA023DB05402120
:100EA0000A435A62A023DB051B68254A1A40A02387
:100EB000DB05802189030A431A60A023DB055A6AF7
:100EC000A023DB058021C9000A435A62184B5A6BE4
:100ED000174B8021C9010A435A631A4B1A68194BF0
:100EE0006C210A431A60174B00225A60154B0022EE
:100EF0009A60144BFA68DA60124B1A68114B0121A0
:100F00000A431A60104B1A680F4B802109050A43E7
:100F10001A6062B6C046C046BD4604B080BDC04639
:100F2000F4010020400200208C02002090020020EA
:100F3000001002400048E801FFFDFFFFFFFFF3FF44
:100F4000FFFFCFFF0038014000E100E080B500AFB7
:100F5000084BDB698022134001D000F025F8054BD7
:100F6000DB692022134001D000F006F8C046BD46E0
:100F700080BDC0460038014080B500AF074B5B6ABA
:100F8000DAB2074B1100180000F042F8031E02D03D
:100F9000044B01221A60C046BD4680BD00380140A6
:100FA000F40100209002002080B500AF164B18001D
:100FB00000F08AF8031E08D0134B180000F059F80F
:100FC00003001A00114B9A621BE0104B1A680F4B7A
:100FD00008218A431A600D4BDB694022134005D07B
:100FE0000A4B1A6A094B40210A431A62074BDB6914
:100FF0008022134005D0054B9A69044B10210A4307
:101000009A61C046BD4680BD4002002000380140C4
:1010100080B582B000AF78600A00FB1C1A707B6854
:101020001A6C7B685B6C9A4205D17B689B6C002BC9
:1010300001D0012319E072B6C0467B681B6C591CB5
:101040007A6811647A68F91C0978D1547B689B6CC2
:101050005A1C7B689A647B681B6C402B02D17B68AE
:1010600000221A6462B6C04600231800BD4602B0D2
:1010700080BD80B584B000AF78607B689B6C002B2E
:1010800001D100231CE072B6C0467B685B6C591C22
:101090007A6851640F22BA187968CB5C13707B6848
:1010A0005B6C402B02D17B6800225A647B689B6C8E
:1010B0005A1E7B689A6462B6C0460F23FB181B78E1
:1010C0001800BD4604B080BD80B582B000AF786026
:1010D0007B689B6C1800BD4602B080BD80B582B0B5
:1010E00000AF78600B4B1B68002B09D101235B42DA
:1010F0000BE07B685A1C7A6019000120FFF72EFE76
:101100007B681B78002BF4D100231800BD4602B089
:1011100080BDC0468C02002080B582B000AF0200C6
:10112000FB1D1A70FB1D19000120FFF717FEC046BA
:10113000BD4602B080BD80B500AF044B1800FFF77C
:1011400098FF03001800BD4680BDC046F401002092
:10115000B0B584B000AF786039601E4B1B68002BBF
:1011600002D101235B4231E00023FB600B23FB181B
:1011700000221A7017E0C046174B1800FFF7A4FFB3
:10118000031EF9D00B257C19134B1800FFF771FFD4
:1011900003002370FB685A1CFA601A007B689B18D6
:1011A0007A1912781A703B68013BFA689A4204DA9D
:1011B0000B23FB181B780D2BDDD1FB68002B04DD06
:1011C000FB687A68D31800221A70FB681800BD46C5
:1011D00004B0B0BD8C020020F401002090B583B0B3
:1011E00000AFFC1DFFF7A7FF03002370FB1D1B785A
:1011F0001800FFF791FFFB1D1B781800BD4603B0D8
:1012000090BDB0B584B000AF78603960214B1B68E9
:10121000002B02D101235B4237E00023FB600B234C
:10122000FB1800221A701DE0C0461B4B1800FFF788
:101230004BFF031EF9D00B257C19174B1800FFF745
:1012400018FF030023702C003B191B781800FFF7D0
:1012500063FFFB685A1CFA601A007B689B183A19F6
:1012600012781A703B68013BFA689A4204DA0B2341
:10127000FB181B780D2BD7D1FB68002B04DDFB6816
:101280007A68D31800221A70FB681800BD4604B0B3
:10129000B0BDC0468C020020F401002080B582B0B1
:1012A00000AF164B7B60164B3B6007E07A68131D5E
:1012B0007B603B68191D396012681A603A68114BEF
:1012C0009A42F3D304E03B681A1D3A6000221A6088
:1012D0003A680D4B9A42F6D30C4B3B6004E03B68F6
:1012E0001A1D3A601B6898473A68094B9A42F6D330
:1012F000C046C046BD4602B080BDC0465C81000805
:1013000000000020D4010020600300205C81000860
:101310005C81000880B500AF3B4B1A683A4B012155
:101320000A431A60C046384B1B6804221340FAD0A7
:10133000354B0122DA60C046334BDB680C22134088
:10134000042BF9D1314B1A68304B02210A431A6041
:101350002E4B1A682D4B01210A431A602A4B9A6BB7
:10136000294B802149050A439A63294B80221201A7
:101370001A60C046264B5B6810221340FAD1224BFC
:10138000DA68214B23490A40DA601F4BDA681E4BAA
:101390008821C9030A43DA601B4A1B4BD268DA6012
:1013A000194A194BD268DA60174A174BD268DA60CB
:1013B000154B1A68144B18490A401A60124B1A68E8
:1013C000114B802149040A431A60C0460E4B1A682B
:1013D00080239B041340F9D00B4BDA680A4B03219E
:1013E0008A43DA60084BDA68074B03210A43DA6064
:1013F000C046054BDB680C2213400C2BF9D1C046CC
:10140000C046BD4680BDC0460010024000200240DC
:1014100000700040FFFF02FFFFFFFFFE80B500AF3E
:10142000024B1800FFF75AFEFEE7C046A07B0008FB
:1014300080B500AF024B1800FFF750FEFEE7C04634
:10144000D07B000880B582B000AF7860FEE780B541
:1014500082B000AF786001235B421800BD4602B045
:1014600080BD80B584B000AFF860B9607A60044B8D
:101470000C221A6001235B421800BD4604B080BDF7
:101480004403002080B500AF034B0B221A600123F8
:101490005B421800BD4680BD4403002080B582B089
:1014A00000AF786039603B68802292015A60002367
:1014B0001800BD4602B080BD80B500AF0123180002
:1014C000BD4680BD80B582B000AF78603960044B06
:1014D00016221A6001235B421800BD4602B080BD8F
:1014E0004403002080B582B000AF78603960044BBF
:1014F0001F221A6001235B421800BD4602B080BD66
:101500004403002080B584B000AFF860B9607A6011
:1015100000231800BD4604B080BD80B582B000AF86
:10152000786039603B68802292015A60002318007D
:10153000BD4602B080BD80B582B000AF78600123A7
:101540005B421800BD4602B080BD80B582B000AFDE
:101550007860044B02221A6001235B421800BD46EA
:1015600002B080BD4403002080B582B000AF786037
:10157000044B0A221A6001235B421800BD4602B0E8
:1015800080BDC0464403002080B582B000AF7860C3
:101590007B68022B01D8012303E0044B09221A6067
:1015A00000231800BD4602B080BDC04644030020A1
:1015B00080B586B000AF7860124B7B61124B3B6107
:1015C000124B1B68002B02D1104B7A691A600F4B2B
:1015D0001B68FB600D4B1A687B68D3183A699A4206
:1015E00005D20B4B0C221A6001235B4206E0074B2D
:1015F0001A687B68D218054B1A60FB681800BD4654
:1016000006B080BD60030020001000209C02002076
:101610004403002080B588B000AFF860B9607A60FC
:101620000023BB61FB68002B22D10023FB611AE081
:10163000FFF781FD03001A0017217B181A70BB68A1
:101640005A1CBA607A181278D2B21A70BB69013388
:10165000BB617B181B78DBB20A2B01D1BB690EE0A2
:10166000FB690133FB61FA697B689A42E0DB05E0C4
:10167000054B09221A6001235B4200E0BB69180098
:10168000BD4608B080BDC0464403002080B586B08A
:1016900000AFF860B9607A60FB68013B012B11D89C
:1016A00000237B6109E0BB685A1CBA601B781800F4
:1016B000FFF732FD7B6901337B617A697B689A426F
:1016C000F1DB05E0054B09221A6001235B4200E0D3
:1016D0007B681800BD4606B080BDC04644030020AC
:1016E00080B584B000AFF860B9607A60FB681968B3
:1016F000BB685B431A0013005B009B18DB430B4085
:101700001A00BB685B4379684B431A43FB681A6055
:10171000C046BD4604B080BD80B584B000AFF8605F
:10172000B9607A60FB685B68BA68D2431A40BB68EC
:1017300079684B431A43FB685A60C046BD4604B003
:1017400080BD80B584B000AFF860B9607A60FB6896
:101750009968BB685B431A0013005B009B18DB436E
:101760000B401A00BB685B4379684B431A43FB6824
:101770009A60C046BD4604B080BD80B584B000AF5D
:10178000F860B9607A60FB68196ABB685B43BA6845
:101790005343BA685A4313001B019B1ADB430B40A7
:1017A0001A00BB685B43B9684B43B9684B4379681F
:1017B0004B431A43FB681A62C046BD4604B080BD65
:1017C00080B584B000AF7860074B996B064B7A68A0
:1017D0000A439A63044B9B6B7A681340FB60FB6877
:1017E000C046BD4604B080BD0010024080B584B044
:1017F00000AF7860074BD96A064B7A680A43DA6211
:10180000044BDB6A7A681340FB60FB68C046BD4648
:1018100004B080BD0010024090B585B000AF786084
:101820003960184B1B68002B02D101235B4224E076
:101830000023FB600AE0FB685A1CFA603A68D4187F
:10184000114B180000F091F9030023707B68013BF5
:101850001A00FB68934205D20B4B180000F0B0F958
:10186000031EE8D1FB68002B06D03A68FB68D3184A
:1018700000221A70FB6800E000231800BD4605B086
:1018800090BDC04638030020A002002080B584B07F
:1018900000AF78603960224B1B68002B02D1012316
:1018A0005B4238E07B683F2B0BDCC0461D4B1800C9
:1018B00000F086F903004022D21A7B689A42F5D3E1
:1018C00002E002235B4226E00023FB600BE03A6863
:1018D000FB68D3181A78134B1100180000F014F9A4
:1018E000FB680133FB607B68FA689A42EFD30E4BCA
:1018F0001B68082213400DD10B4B1A680A4B0821B4
:101900000A431A60074B180000F02FF903001A0071
:10191000054B9A6200231800BD4604B080BDC04646
:1019200038030020EC0200200044004080B584B061
:1019300000AF786072B6C0463B4B00229A643A4BC7
:101940009A6C394B5A64384B5A6C374B1A64374B84
:1019500000229A64354B9A6C344B5A64334B5A6C60
:10196000324B1A64324B01221A60324B00221A6049
:101970000120FFF73BFF304BFB607968F86800F00F
:1019800015FA0300FB60A023DB05032204211800E5
:10199000FFF7D7FEA023DB05002204211800FFF784
:1019A000BBFEA023DB05022204211800FFF798FEEE
:1019B000A023DB05042204211800FFF7DEFEA0238C
:1019C000DB05022208211800FFF78AFEA023DB05B1
:1019D000042208211800FFF7D0FE80239B02180084
:1019E000FFF7EEFE154B1A68144B6C210A431A6080
:1019F000124B00225A60114B00229A600F4BFA687A
:101A0000DA600E4B1A680D4B01210A431A600C4B29
:101A10001A680B4B802149050A431A6062B6C0461A
:101A2000C046BD4604B080BDA0020020EC020020EC
:101A3000380300203C0300200048E8010044004037
:101A400000E100E080B500AF084BDB698022134065
:101A500001D000F025F8054BDB692022134001D0AE
:101A600000F006F8C046BD4680BDC04600440040B8
:101A700080B500AF074B5B6ADAB2074B1100180064
:101A800000F042F8031E02D0044B01221A60C04647
:101A9000BD4680BD00440040A00200203C03002061
:101AA00080B500AF164B180000F08AF8031E08D06E
:101AB000134B180000F059F803001A00114B9A62FA
:101AC0001BE0104B1A680F4B08218A431A600D4B1C
:101AD000DB694022134005D00A4B1A6A094B4021AA
:101AE0000A431A62074BDB698022134005D0054B7D
:101AF0009A69044B10210A439A61C046BD4680BDD5
:101B0000EC0200200044004080B582B000AF786055
:101B10000A00FB1C1A707B681A6C7B685B6C9A422B
:101B200005D17B689B6C002B01D0012319E072B6B4
:101B3000C0467B681B6C591C7A6811647A68F91C72
:101B40000978D1547B689B6C5A1C7B689A647B68CB
:101B50001B6C402B02D17B6800221A6462B6C0461F
:101B600000231800BD4602B080BD80B584B000AF30
:101B700078607B689B6C002B01D100231CE072B65F
:101B8000C0467B685B6C591C7A6851640F22BA1896
:101B90007968CB5C13707B685B6C402B02D17B68EF
:101BA00000225A647B689B6C5A1E7B689A6462B6FA
:101BB000C0460F23FB181B781800BD4604B080BD3B
:101BC00080B582B000AF78607B689B6C1800BD4622
:101BD00002B080BD80B582B000AF78600B4B1B684F
:101BE000002B09D101235B420BE07B685A1C7A6011
:101BF00019000120FFF74AFE7B681B78002BF4D107
:101C000000231800BD4602B080BDC0463803002046
:101C100080B582B000AF0200FB1D1A70FB1D1900D9
:101C20000120FFF733FEC046BD4602B080BD80B53F
:101C300000AF044B1800FFF798FF03001800BD46E3
:101C400080BDC046A0020020B0B584B000AF78606F
:101C500039601E4B1B68002B02D101235B4231E02F
:101C60000023FB600B23FB1800221A7017E0C0460C
:101C7000174B1800FFF7A4FF031EF9D00B257C19A2
:101C8000134B1800FFF771FF03002370FB685A1C09
:101C9000FA601A007B689B187A1912781A703B68F0
:101CA000013BFA689A4204DA0B23FB181B780A2BD3
:101CB000DDD1FB68002B04DDFB687A68D3180022B5
:101CC0001A70FB681800BD4604B0B0BD3803002090
:101CD000A002002080B500AF034B1800FFF770FF93
:101CE00003001800BD4680BDA002002090B583B05F
:101CF00000AFFC1DFFF79BFF03002370FB1D1B784B
:101D00001800FFF785FFFB1D1B781800BD4603B0C8
:101D100090BDB0B584B000AF78603960214B1B68CE
:101D2000002B02D101235B4237E00023FB600B2331
:101D3000FB1800221A701DE0C0461B4B1800FFF76D
:101D40003FFF031EF9D00B257C19174B1800FFF736
:101D50000CFF030023702C003B191B781800FFF7C1
:101D600057FFFB685A1CFA601A007B689B183A19E7
:101D700012781A703B68013BFA689A4204DA0B2326
:101D8000FB181B780D2BD7D1FB68002B04DDFB68FB
:101D90007A68D31800221A70FB681800BD4604B098
:101DA000B0BDC04638030020A002002003460B430C
:101DB0007FD4002243088B4274D303098B425FD344
:101DC000030A8B4244D3030B8B4228D3030C8B4270
:101DD0000DD3FF22090212BA030C8B4202D3121256
:101DE000090265D0030B8B4219D300E0090AC30B2B
:101DF0008B4201D3CB03C01A5241830B8B4201D3D8
:101E00008B03C01A5241430B8B4201D34B03C01AC0
:101E10005241030B8B4201D30B03C01A5241C30A38
:101E20008B4201D3CB02C01A5241830A8B4201D3A9
:101E30008B02C01A5241430A8B4201D34B02C01A93
:101E40005241030A8B4201D30B02C01A5241CDD238
:101E5000C3098B4201D3CB01C01A524183098B4283
:101E600001D38B01C01A524143098B4201D34B016C
:101E7000C01A524103098B4201D30B01C01A5241CF
:101E8000C3088B4201D3CB00C01A524183088B4256
:101E900001D38B00C01A524143088B4201D34B003F
:101EA000C01A5241411A00D20146524110467047B1
:101EB0005DE0CA0F00D04942031000D340425340B6
:101EC00000229C4603098B422DD3030A8B4212D376
:101ED000FC22890112BA030A8B420CD389019211A8
:101EE0008B4208D3890192118B4204D389013AD0E5
:101EF000921100E08909C3098B4201D3CB01C01ABA
:101F0000524183098B4201D38B01C01A52414309CC
:101F10008B4201D34B01C01A524103098B4201D3BA
:101F20000B01C01A5241C3088B4201D3CB00C01A27
:101F3000524183088B4201D38B00C01A5241D9D23F
:101F400043088B4201D34B00C01A5241411A00D2C0
:101F50000146634652415B10104601D34042002BBC
:101F600000D54942704763465B1000D3404201B53B
:101F7000002000F005F802BD0029F8D016E77047F0
:101F80007047C046F0B54F464646D6464502C0B5F6
:101F900047000C1C6D0A3F0EC60F002F00D170E0E9
:101FA000FF2F00D175E0EB008025ED041D430023D9
:101FB00099469A467F3F6002430A984663001B0E8B
:101FC000E40F002B4ED0FF2B46D04246D00080229B
:101FD000D2040243904600227F3B3100FF1A4B4659
:101FE0006140C9B213430F2B00D9B5E06E489B0086
:101FF000C3589F46002398462600454692465346BE
:10200000022B00D189E0032B00D19EE0012B18D0D8
:102010003B007F33002B69DD6A0704D00F222A4082
:10202000042A00D004352A0103D5604B1D403B0033
:102030008033FE2B00DD70E0AD016D0AD8B202E006
:102040000E0000200025C0052843F6073043E0BC01
:10205000BA46B146A846F0BD4346002B3FD1022206
:10206000FF3F03E04346002B2DD1012231004B46B8
:102070006140C9B213430F2B34D84D489B00C3585D
:102080009F46002D13D104239946033B00279A460F
:1020900091E7002D05D108239946063BFF279A4674
:1020A00089E70C239946093BFF279A4683E72800D6
:1020B00000F0CEF87627431F9D4000237F429946CB
:1020C0009A463F1A77E7404600F0C2F84246431F5F
:1020D0009A4076235B4290461B1A00227DE7FF233D
:1020E00003227AE70E00FF200025ACE70120C01A8A
:1020F0001B28A6DC9E372A00BD40C2406B1E9D41B6
:1021000015436B0704D00F232B40042B00D004355C
:102110006B0144D50120002595E7FF20002592E7BB
:1021200080250026FF20ED038DE7002398468020C0
:10213000C003054209D04346034206D14546054344
:102140006D022600FF206D0A7DE78020C003054355
:102150006D02FF206D0A76E742466B015001834213
:1021600019D21B220025013F01261C006D005B00D7
:10217000002C01DB984201D81B1A3543013A002A92
:10218000F3D15A1E93411D433B007F330E00002BB9
:1021900000DD41E7AAE71A2201251B1AE4E7AD0199
:1021A00000206D0A4FE7C046147C0008FFFFFFF7D0
:1021B000547C0008F8B5002813D0C317C6185E4039
:1021C000C40F300000F044F89E2305001B1A962B24
:1021D0000FDC082801DD083DAE407602760AD8B251
:1021E00002E0002400200026C0053043E40720431D
:1021F000F8BD992B0CDD05223100121AD1400A00DE
:10220000010030001B318840411E88410243160006
:10221000052D12DC31000D4F3940720709D00F2017
:102220003040042805D004314A0102D59F233940AB
:102230005B1B89014E0AD8B2D6E76A1F964031006F
:10224000024F39407207F4D0E9E7C046FFFFFFFBB9
:102250001C2101231B04984201D3000C10391B0AD6
:10226000984201D3000A08391B09984201D300099A
:10227000043902A2105C40187047C04604030202F1
:10228000010101010000000000000000F0B51E0087
:10229000002314008BB09E4204DA802109067318D3
:1022A0001E002D23129A149F1370202303229F4394
:1022B000462F07D03B00453B59424B411099013A0C
:1022C000CB18109309AB049308AB0393139B0092B4
:1022D0000293109B22000193330000F097FE05004B
:1022E000472F02D1119BDB0728D5109BEB180793D2
:1022F000462F14D12B78302B0CD100220023200044
:10230000310003F08BFD002804D10123109A9B1AA1
:10231000139A1360139B079A1B68D3180793002224
:1023200000232000310003F079FD002801D0079B35
:1023300009933022099B07998B4206D32800099BF9
:10234000159A5B1B13600BB0F0BD591C09911A70F4
:10235000F0E7F0B5831C87B0039305000C002B2336
:102360000270002901DA4C4202336B70092C31DD16
:102370000A2704ABDE1D200039000196FFF7FCFDA3
:10238000013E30312000317039000294FFF70EFD1C
:10239000029B0400632BEEDC019B30349A1E130079
:1023A0000399147004A8073098420ED804AB073381
:1023B00000209A4204D804AB0930C018019BC01A0F
:1023C000039B1818401B07B0F0BD18780133087044
:1023D0000131E7E73023E418AB70281DEC70F1E71A
:1023E000F0B595B00C0009921E001A9D070001F08F
:1023F00065FE036818000C9300F09CFC0023129308
:10240000237E07220A9323680E900D930D992B6863
:10241000C90547D59B1893431A0008322A601A68E9
:102420005B68A264E3640122A36CE56C0B936B0010
:102430005B080F930B98A74B0F99524205F058FA7F
:10244000002831D10122A34B0B980F99524203F07F
:10245000F5FC002828D10022002329000B9803F066
:10246000E3FC002803D023002D2243331A700A9B7B
:10247000994D472B00D9994D03230D9A23610133C0
:102480009A43002322600B93099B21003800009699
:1024900013AA00F0E7F9431C00D0A2E0012040425B
:1024A00015B0F0BD0733B6E70B9A2B0010002900DA
:1024B00005F01EFA00280BD0002D03DA23002D2290
:1024C00043331A700A9B864D472BD5D9854DD3E7E8
:1024D00020220A99636891430F915A1C49D107330E
:1024E000636080230D9ADB0013430022069212AA38
:1024F00005920A9A08A9049211AA03922322236042
:102500000193636852180292009338002B000B9AD3
:10251000FFF7BCFE0F9B05001199472B08D1CB1C80
:1025200002DB6368994248DD0A9B023BDBB20A93F7
:102530000A9B652B24D820001A00013950301191D4
:10254000FFF707FF129A0B9013182361012A02DC90
:102550002268D20701D501332361232308AA9B18DF
:102560001B78002B00D18FE723002D2243331A70F4
:102570008AE70F9A472AB4D1002BB2D10133AFE7D3
:102580000A9B662B1BD1636800290DDD2161002B9E
:1025900002D12268D20702D5013359182161119B5B
:1025A000A36500230B93D8E7002B03D101222168F8
:1025B000114200D09A1C2261F1E767230A93119B14
:1025C000129A934206DB22682361D207E7D50133D2
:1025D0002361E4E70121002B01DC4918C91A5218D4
:1025E000E9E72268530507D423692A0038000999CE
:1025F000B047431C28D151E70A9B652B00D8E1E086
:10260000A06CE16C0022002303F008FC002831D00C
:1026100001233800344A0999B047431C00D13DE7F3
:10262000119B129A934202DB2368DB070CD538001A
:102630000E9B0C9A0999B0470025431C00D12DE749
:10264000129B013BAB420ADC23689B0700D506E1E5
:10265000139BE068984200DB22E7180020E7220085
:102660000123380009991A32B047431C00D115E7FD
:102670000135E5E7119B002B38DC012338001A4AAD
:102680000999B047431C00D108E7119B129A1343E4
:1026900002D12368DB07D7D50E9B38000C9A099925
:1026A000B047431C00D1F9E600230A93119B0A9A14
:1026B0005B42934201DC129B97E722000123380022
:1026C00009991A32B047431C00D1E7E60A9B01334F
:1026D000EBE7C046FFFFEF7F947C0008987C000882
:1026E0009C7C0008A07C0008A47C0008129AA36DC2
:1026F0000A929A4200DD0A930A9B002B3CDC0023DD
:102700000D930A9BDB43DB170F93A36D0F9A0B937B
:102710000A9B13400B9AD31A0D9A934234DC119BF7
:10272000129A93423DDB2368DB073AD4129A0B9B43
:102730001199D31A521A0A929A4200DD0A930A9BFF
:10274000002B36DC0A9B0025DB43DB170B93119A29
:10275000129B0B999B1A0A9A0A409B1AAB4200DC07
:1027600072E722000123380009991A32B047431C4E
:1027700000D193E60135EAE70A9B2A00380009995F
:10278000B047431CBBD189E62200012338000999D8
:102790001A32B047431C00D180E60D9B01330D93E4
:1027A000B3E70E9B38000C9A0999B047431CBDD182
:1027B00074E60B9B3800EA1809990A9BB047431C42
:1027C000C0D16BE6129B012B02DC01231A4234D0EC
:1027D00001232A0038000999B047431C00D15DE667
:1027E0000E9B38000C9A0999B047431C00D155E65E
:1027F000A06CE16C0022002303F010FB00281AD12A
:10280000129B6A1C013B38000999B047431C0ED14A
:1028100044E622000123380009991A32B047431CCC
:1028200000D13BE60135129B013BAB42F1DC2200BB
:102830000B9B5032DAE60025F5E72A00E3E7220099
:102840000123380009991932B047431C00D125E60D
:102850000135E368139A9B1AAB42F0DCF8E60025D9
:10286000F7E7C046F7B5150001938A680B690C00BD
:102870000090934200DA130022002B60433212785A
:10288000002A01D001332B6023689B0602D52B68F8
:1028900002332B602268062317001F401A4227D0FC
:1028A000230043331B785A1E93412268920630D48A
:1028B000220001990098089E4332B047431C25D05E
:1028C000062320682A68E16800250340042B03D111
:1028D0008D1AEB43DB171D40A3682269934201DD8B
:1028E0009B1AED180027BD4220D1002010E00137CF
:1028F000E3682A689B1ABB42D2DD220001230199BA
:102900000098089E1932B047431CF0D10120404284
:10291000FEBD3020E1184331087021005A1C4531BA
:102920000978A218433202331170C1E72200012353
:1029300001990098089E1A32B047431CE6D001372F
:10294000D1E70000F0B58BB006920A00433207933E
:10295000059004920A7E0C00109B782A07D8622A00
:1029600009D8002A00D1C1E0582A00D18CE0260005
:102970004236327022E0100063381528F7D803F091
:10298000A9F916001F00F6FFF6FFF6FFF6FF1F007D
:10299000F6FFF6FFF6FFF6FFA80036009A00F6FFF6
:1029A000F6FFB900F6FF3600F6FFF6FF9E002600A0
:1029B0001A684236111D1960136833700123A7E0AD
:1029C000086819680A1D05060BD50D681A60002DE8
:1029D00003DA2D23049A6D421370614B0A27039387
:1029E0001BE00D681A604106F1D52DB2EFE70D68C6
:1029F0001968081D18602E0601D50D6803E06D06E4
:102A0000FBD50D68ADB2564B082703936F2A00D053
:102A100002372300002243331A706368A360002B3F
:102A200003DB0422216891432160002D02D1049E22
:102A3000002B0CD0049E2800390003F0DBF9039B27
:102A4000013E5B5C33702B0005009F42F3D9082FD9
:102A500009D12368DB0706D563682269934202DC4B
:102A60003023013E3370049B9B1B2361079B210095
:102A700000930598069B09AAFFF7F4FE431C4CD16E
:102A8000012040420BB0F0BD45310A70344A039238
:102A90001A68216820CA1A60080616D5CB0702D525
:102AA0002023194321601027002DB2D12023226852
:102AB0009A432260ADE7202209680A43226022007F
:102AC000782145321170274AE1E74806E6D5ADB2D4
:102AD000E4E71A680D68101D4969186013682E062E
:102AE00001D5196002E06D06FBD519800023049E14
:102AF0002361BBE71A68111D1960166800213000B8
:102B0000626801F06FFB002801D0801B6060636881
:102B100023610023049A1370A8E723693200069901
:102B20000598079DA847431CAAD023689B0715D486
:102B3000099BE0689842A5DA1800A3E72200012368
:102B400006990598079E1932B047431C98D0013565
:102B5000E368099A9B1AAB42F0DCE9E70025F7E746
:102B6000A67C0008B77C00080EB417B5041E04D07C
:102B70008369002B01D101F0C7F906AB2000059A4B
:102B8000A168019302F054FB1EBC08BC03B01847B7
:102B90000FB40B4B13B51C68002C05D0A369002B98
:102BA00002D1200001F0B0F905AB2000049AA16821
:102BB000019302F03DFB16BC08BC04B01847C046A8
:102BC0000400002070B505000E00002804D08369C1
:102BD000002B01D101F098F9AB69AC68002B02D150
:102BE000280001F091F92D4B9C4222D16C68636E54
:102BF000DB0705D4A3899B0502D4A06D01F06BFA15
:102C0000A3891B0702D52369002B29D121002800A5
:102C100000F0F8F8002823D001256D42636EDB0731
:102C200005D4A3899B0502D4A06D01F05AFA2800AF
:102C300070BD1B4B9C4201D1AC68D8E7194B9C423C
:102C4000D5D1EC68D3E70136A360002B04DAA26982
:102C50009A4216DC0A2914D023685A1C2260197083
:102C6000A3683178013B0029EDD1A360002B0FDA76
:102C7000280022000A3100F065F80A25431CCDD156
:102C8000CAE72200280000F05DF8431CE8D1C3E742
:102C90000A2523685A1C22601D70BFE79C7D00082E
:102CA000BC7D00087C7D000810B5034B010018684E
:102CB000FFF788FF10BDC046040000200CB400B52B
:102CC0009DB00291069109491EAB079104910849F4
:102CD00004CB059102A9019302F074F90023029A32
:102CE00013701DB008BC02B01847C046FFFFFF7F3D
:102CF0000802FFFF0EB400B50B499CB01DAB02905B
:102D00000690079104910948094904CB0591006890
:102D100002A9019302F056F90023029A13701CB025
:102D200008BC03B01847C046FFFFFF7F0400002027
:102D30000802FFFF0023C25C0133002AFBD1581EAA
:102D400070470000F8B505000E001400002804D0FC
:102D50008369002B01D101F0D7F8224B9C422ED180
:102D60006C68A369A360A3891B0732D52369002B74
:102D70002FD023682269F7B2981A6369F6B28342AA
:102D800005DC2100280000F0E7FF002827D1A36818
:102D90000130013BA36023685A1C22601F706369E5
:102DA000834204D0A389DB0707D50A2E05D1210071
:102DB000280000F0D1FF002811D13000F8BD0A4BE7
:102DC0009C4201D1AC68CCE7084B9C42C9D1EC686D
:102DD000C7E72100280000F015F80028C9D0012617
:102DE0007642EAE79C7D0008BC7D00087C7D0008F7
:102DF00010B5034B0A0001001868FFF7A3FF10BDD0
:102E000004000020374B70B51D6806000C00002D33
:102E100005D0AB69002B02D1280001F075F8324BC8
:102E20009C420FD16C680C23E25E93B211072DD443
:102E3000D90611D409230120336037331343A3810A
:102E4000404270BD294B9C4201D1AC68EBE7284B56
:102E50009C42E8D1EC68E6E75B0713D5616B00297B
:102E600008D023004433994202D0300001F0E6FE3E
:102E7000002363632422A3899343A3810023636017
:102E8000236923600823A2891343A3812369002BAC
:102E90000BD1A0218022A389890092000B4093428C
:102EA00003D02100300001F045F90C22A35E01207F
:102EB0001A0099B2024003420FD00022A260626958
:102EC0005242A261002022698242BAD10A06B8D5D4
:102ED00040221343A3810138B3E7880700D4626915
:102EE000A260EFE7040000209C7D0008BC7D000884
:102EF0007C7D0008F0B506000B69326987B00020C0
:102F000003919A4265DB013B9C0000930B00143354
:102F100005931B1904933300143302931C19049B6B
:102F200027681B6838005D1C2900019302F0DCFE55
:102F30000190AF4224D30025AC460298059F08CFEC
:102F4000019A99B251431B0C534349190A0C9B181F
:102F5000026889B292B26244521A01681D0C090CCF
:102F60009BB2CB1A11145B18191492B21B041A43AA
:102F7000049B8C4604C0BB42E1D22368002B30D0B6
:102F80003000039901F01AFC002821DB30000024F6
:102F9000019B03990133019314301431036820C954
:102FA0009AB21419AAB2A21A1B0C2D0C14145B1B92
:102FB0001B191C1492B21B04134308C0049B8B42C0
:102FC000ECD2009B029A9B00D3181A68002A15D0F5
:102FD000019807B0F0BD2368002B06D1009B013B90
:102FE0000093029B043CA342F5D3009B3361C7E7E7
:102FF0001A68002A06D1009A013A0092029A043B0C
:103000009A42F5D3009B3361E2E70000F0B59DB032
:1030100002920393029B039C08930994446A07005D
:10302000259D002C0ED1102001F0C8F8021E7862F8
:1030300004D1EA21C74BC84802F0B4FA4460846066
:103040000460C4607B6A196800290AD05A680123A9
:1030500093404A608B60380001F024F900227B6ABB
:103060001A60039B002B20DA01232B60039B5B007B
:103070005B080993099DB94BB84A2B40934217D17D
:10308000B74B249A28031360029B000B184301D10D
:1030900000F0BFFDB348269B0690002B02D0B24B38
:1030A000269A136006981DB0F0BD00232B60E1E75F
:1030B000089B099C129313941298139900220023E1
:1030C00002F0ACFE041E09D00123249A1360A74B22
:1030D0000693269B002BE5D0A54BE1E71AAB0193A5
:1030E0001BAB00933800129A139B01F08FFC6E000B
:1030F0000590760D00D17CE012981399139B9D4AA0
:103100001B031B0B1A4311009B4B1894F61800224B
:103110009A4B04F05BF89A4A9A4B03F0EBFD9A4AFB
:103120009A4B02F0A9FE040030000D0004F034FCBC
:10313000974A984B03F0DEFD02000B0020002900A7
:1031400002F09AFE04000D0004F0F0FB0022029051
:1031500000232000290002F067FE00280BD002980F
:1031600004F01AFC2B00220002F058FE43425841A2
:10317000029B1B1A029301231693029B162B0FD856
:1031800012981399DA00844B9B181A685B6802F056
:103190004BFE002849D0029B013B0293002316936B
:1031A0001A9B9E1B00230A933300013B0D9304D509
:1031B00001239B1B0A9300230D93029B002B36DBFC
:1031C000029A0D9B944663440D93002315920E932F
:1031D000229B0124092B64D8052B02DD0024043B2B
:1031E0002293229B981E032864D802F069FD293897
:1031F00036581A9B1B9A9E18684BF218202A0FDD2E
:1032000040239B1A9D40664B0298F318D8402843F0
:1032100004F0F2FB0123634C013E0919189376E791
:10322000202302989B1A9840F2E71690B8E70A9B71
:10323000029A9B1A0A9353420E9300231593C7E7F1
:1032400000230F93239B0C930793002B13DC012384
:103250001A000C93079323920DE00123F1E700235A
:10326000239A0F939446029B63440C930133079374
:10327000002B00DC01230022786A42600432150032
:10328000143541689D4219D9380000F0C7FF0690F7
:10329000002817D1D5210200434B4900CBE601237A
:1032A000DEE700230F942293013B0C930793002247
:1032B0001333D0E701230F93023BF6E7013141605E
:1032C0005200DCE77B6A069A1A60079B0E2B00D936
:1032D000EBE0002C00D1E8E0029B002B68DD1A0037
:1032E0000F212D4B0A40D2009B181D685E68029B7F
:1032F0001C1102231093029BDB050BD52B4B0C40BA
:103300001A6A5B6A1298139903F0F2F80323089083
:1033100009911093254B1493002C08D10898099912
:103320002A00330003F0E4F8089009915CE00123DF
:103330001C420BD0109B280001331093149B3100CA
:103340001A685B6803F0D6FC05000E00149B64103D
:103350000833E0E7D57C0008EC7C00080000F07F33
:103360000F270000D17C0008D47C0008A47C000852
:10337000A57C00080000F03F01FCFFFF0000F83FC3
:1033800061436F63A787D23FB3C8608B288AC63F6B
:10339000FB799F501344D33F887E0008320400001D
:1033A00012040000000010FE6A7D0008607E000824
:1033B00002231093029B002B16D0129813995C42A3
:1033C0000F23B64A2340DB00D3181A685B6803F06A
:1033D00091FC0126002308900991B14D2411002C85
:1033E00000D094E0002B9FD1169B002B00D19BE0D6
:1033F000089C099D002220002900AA4B02F014FD20
:10340000002800D190E0079B002B00D18CE00C9BA2
:10341000002B46DD029B0022200029005E1EA24BED
:1034200003F068FC109B08900991013310930C9BEA
:103430001098089C099D149304F0AEFA22002B000A
:1034400003F058FC0022994B02F016FD10901191E8
:10345000109A119B08920993954A119B94466344D4
:1034600017930993149B002B61D10022200029009F
:10347000904B03F0ABFE089A179B04000D0002F07E
:10348000E7FC002800D0AFE28B48119984466144E4
:103490000B0020002900089A02F0C6FC002800D08A
:1034A0009FE2129B139C089309941B9B002B00DA4C
:1034B00072E1029A0E2A00DD6EE1784BD2009B1871
:1034C0005C681B680A930B94239B002B00DBF7E0DE
:1034D000079B002B00DDF3E000D082E20A980B99F5
:1034E0000022744B03F006FC089A099B02F0BAFC18
:1034F000079E3500002800D059E2069B069A01334A
:10350000089331231370029B0133029354E2344237
:1035100007D0109B013310932A686B6803F0EAFB15
:103520003300641008355AE7029E079B80E7149B1E
:103530000F995A1E594BD2009B181A685B680029D4
:1035400051D000205D4902F0D3FF089A099B03F097
:103550003DFE069A069B94461793149B109011917A
:10356000634419932900200004F0E0F9149004F05A
:1035700013FA02000B002000290003F027FE179B1E
:10358000179A01330893149B040030331370109A78
:10359000119B0D0002F048FC002875D122002B0081
:1035A0000020404903F012FE109A119B02F03CFCEF
:1035B000002800D0D2E0199B089A934200D170E70E
:1035C000109811990022384B03F094FB364B109061
:1035D000119100222000290003F08CFB089B0400BD
:1035E0000D001793BEE70898099903F083FB069A2C
:1035F000069B94460893149B109011916344199371
:103600002900200004F092F9179004F0C5F9020097
:103610000B002000290003F0D9FD179B089A3033D6
:1036200013701300199A013304000D00089393429C
:103630002CD110981199069A149B94466344002249
:1036400008931E4B02F018FC02000B00200029001A
:1036500002F0FEFB002800D080E0109A119B0020B1
:10366000164903F0B3FD02000B002000290002F010
:10367000DBFB002800D114E7089B1A00013A0892EE
:103680001278302AF8D00893029655E00022064BB3
:1036900003F030FB04000D00B2E7C046887E00084E
:1036A000607E00080000F03F0000244000001C4045
:1036B0000000C0FC000014400000C07C0000E03F9F
:1036C000079B069E013B9B190C93089C099D0A9A37
:1036D0000B9B2000290002F00BFF04F027F9079054
:1036E00004F05AF90A9A0B9B03F004FB02000B004A
:1036F0002000290003F06AFD3300079A01363032BA
:103700001A700C9A08969A4239D102000B0002F006
:10371000B3FB0A9A0B9B04000D0002F099FB0028F2
:103720001BD10A9A0B9B2000290002F077FB00288E
:1037300002D0079BDB0710D43800059900F0B2FDDA
:103740000023089A02981370249B01301860269B6E
:10375000002B00D1A6E41A60A4E4029E089B089303
:10376000013B1A78392A06D1069A9A42F7D13022BB
:10377000069901360A701A7801321A7084E700221D
:10378000AA4B03F0B7FA0022002304000D0002F058
:1037900045FB00289BD0CFE70F9D0E9E0A9C002D75
:1037A00012D0229A012A66DC189A002A5DD0A04A1B
:1037B0009B180A9A0121D2180A920D9A3800D31840
:1037C0000D9300F06BFE0500002C0EDD0D9B002B11
:1037D0000BDD0D9A2300944200DD13000A9AE41ACF
:1037E000D21A0A920D9AD31A0D930E9B002B1FD05A
:1037F0000F9B002B54D0002E11DD29003200380021
:1038000000F012FF059A01000500380000F05CFE90
:1038100005991490380000F045FD149B05930E9B0C
:103820009A1BB34204D03800059900F0FDFE0590C4
:103830000121380000F032FE159B0600002B31DD1F
:103840001A000100380000F0EFFE229B0600012B59
:103850002DDD00230E93336903339B00F318586862
:1038600000F0D4FD2023181A39E036231A9A0E9E50
:103870000A9C9B1A9DE7079B5E1E0E9BB34207DBCB
:103880009E1B079B0A9C002B93DAE41A002390E707
:103890000E9B159AF31AD3180E9615930026F0E78F
:1038A0000E9AC0E700230E93229B012B13DC00230A
:1038B0000E93089B002B0ED1099B1B030BD15D4B74
:1038C000099A134207D00A9B01330A930D9B0133D7
:1038D0000D9301230E93159B0120002BBBD10D9B53
:1038E0001F22181803001340104246D00132D21A8A
:1038F000042A3FDD1C22D31A0A9AE418D2180A922D
:103900000D9AD3180D930A9B002B05DD1A00380081
:10391000059900F0E5FE05900D9B002B05DD3100BB
:103920001A00380000F0DCFE0600169B002B26D0A3
:103930003100059800F042FF002820DA029B0A229D
:10394000013B029338000023059900F0CFFC0F9B48
:103950000590002B00D166E1002329000A223800DF
:1039600000F0C4FC0C9B0500002B47DC229B022BC3
:103970000DDC43E0042AC6D013001C33BCE7079BD0
:10398000002B35DC229B022B32DD079B0C930C9B1A
:10399000002B0CD131000522380000F0A7FC0600F6
:1039A0000100059800F00AFF002800DDA5E5239B33
:1039B000DB430293069B089300243100380000F09B
:1039C00071FC002D00D1B7E6002C05D0AC4203D02D
:1039D0002100380000F066FC2900380000F062FC8D
:1039E000AAE600263500E2E70296149E350084E53B
:1039F0000F9B002B00D1CEE0079B0C93002C05DD24
:103A000029002200380000F06BFE05000E9B280004
:103A1000002B22D03800696800F000FC041E0FD192
:103A20000200054B0549FFF706FBC0460000244095
:103A3000330400000000F07F6A7D0008EA02000005
:103A400029002B690C319A1C92000C3000F0D5FB38
:103A500001222100380000F043FE069B0C9A0A93D5
:103A6000013B9B1801222C0005001493089B134076
:103A70000F9331000598FFF73DFA03002100303322
:103A80000D900598079300F099FE2A000E903100E2
:103A9000380000F0AFFEC3680890109301230C9328
:103AA000109B002B04D10100059800F087FE0C90BC
:103AB0003800089900F0F6FB0A9B0C9A0133089332
:103AC000229B13430F9A13430CD1079B392B26D00B
:103AD0000E9B002B02DD0D9B313307930A9B079A47
:103AE0001A706AE70E9B002B04DB229A13430F9A8D
:103AF00013431FD10C9B002BF0DD059901223800E8
:103B000000F0EEFD3100059000F058FE002803DCC7
:103B1000E4D1079BDB07E1D5079B392BDBD13923A8
:103B20000A9A1370089B0893013B1A78392A68D0C7
:103B30000132D5E70C9B002B07DD079B392BEED01C
:103B4000079B0A9A0133137037E70A9B079A1A708A
:103B5000149B0A9A93423ED000230A22059938000A
:103B600000F0C4FB002305900A2221003800AC427B
:103B700006D100F0BBFB04000500089B0A9378E720
:103B800000F0B4FB2900040000230A22380000F0F2
:103B9000ADFB0500F1E7079B0C930024310005986D
:103BA000FFF7A8F9069B303018550C9B013407909D
:103BB000A34207DD00230A223800059900F096FB96
:103BC0000590EBE70C9B0120002B00DD1800002482
:103BD000069B1B18089305990122380000F080FD10
:103BE0003100059000F0EAFD00289BDC02D1079B24
:103BF000DB0797D4089B0893013B1A78302AFAD048
:103C0000DBE6069A9A428ED1029B0133029331235E
:103C100099E7094B269A0693084B002A01D0FFF733
:103C20003FFAFFF73FFA0C9B002BB6DC229B022BDE
:103C300000DDACE6B1E7C046C87C0008D07C0008D7
:103C4000F7B58B8905000C001A075FD44A68002A73
:103C500004DC0A6C002A01DC0020FEBDE76A002FAC
:103C6000FAD0002280212E682A601A0049010A40F9
:103C70000B4234D0606DA3895B0706D56368C01A18
:103C8000636B002B01D0236CC01A0200216A002351
:103C90002800E76AB847A189431C06D12B681D2B71
:103CA00031D82C4ADA40D3072DD50023636023692D
:103CB0002360CB0405D5431C02D12B68002B00D117
:103CC0006065616B2E600029C6D0230044339942A1
:103CD00002D0280000F0B2FF00206063BDE701239E
:103CE0002800216AB847431CC5D12B68002BC2D0DD
:103CF0001D2B01D0162B01D12E60ADE74023A289E8
:103D00001343A381A9E740230B43FAE70F69002F70
:103D1000A2D00A680F60D21B019200229B0700D13B
:103D20004A69A260019B002B00DC95E73A0028005D
:103D3000019B216AA66AB047002806DC40230120C7
:103D4000A28940421343A38187E7019B3F181B1AB6
:103D50000193E7E7010040200B6970B505000C00F6
:103D6000002B02D10025280070BD002804D08369F3
:103D7000002B01D100F0C8F8144B9C421BD16C6899
:103D80000C22A35E002BEDD0626ED20704D49B05FB
:103D900002D4A06D00F09FF928002100FFF750FF2A
:103DA000636E0500DB07DED4A3899B05DBD4A06D21
:103DB00000F097F9D7E7064B9C4201D1AC68DFE7EA
:103DC000044B9C42DCD1EC68DAE7C0469C7D0008DD
:103DD000BC7D00087C7D0008010010B5002805D1DD
:103DE000054B0649186800F046F910BD044B1868E9
:103DF000FFF7B2FFF9E7C046DC7D0008593D000837
:103E000004000020002310B50400036043608360B9
:103E1000818143661900C281036143618361082285
:103E20005C3000F0F3F9054B24626362044BA3623B
:103E3000044BE362044B236310BDC046E154000809
:103E40000D550008455500087155000810B5024988
:103E500000F011F910BDC046593D0008436E10B581
:103E6000DB0705D483899B0502D4806D00F033F90C
:103E7000002010BD436E10B5DB0705D483899B0578
:103E800002D4806D00F02DF9002010BD70B56825BA
:103E90004A1E55430E002900743100F03BFF041EFA
:103EA00008D000212A00016046600C30A060683212
:103EB00000F0ACF9200070BD10B5024B1868FFF798
:103EC000C5FF10BDDC7D000810B5024800F003F905
:103ED00010BDC0464E03002010B5024800F001F9A5
:103EE00010BDC0464E03002010B5024800F0F3F8A4
:103EF00010BDC0464F03002010B5024800F0F1F895
:103F000010BDC0464F03002013B50400FFF7ECFFBF
:103F1000A369002B02D0FFF7EFFF13BDA364E36496
:103F20002365134B134A1B68A2620193A34201D17C
:103F30000123A361200000F01FF86060200000F062
:103F40001BF8A060200000F017F800220421E060B8
:103F50006068FFF757FF01220921A068FFF752FFB1
:103F600002221221E068FFF74DFF0123A361D2E78F
:103F7000DC7D00084D3E0008F8B50700FFF7A4FF00
:103F80001F4B1E68B369002B02D13000FFF7BCFF46
:103F90004836B4687368013B04D53368002B22D0DF
:103FA0003668F6E70C22A55E002D1AD12000154BCD
:103FB0005830E360656600F08AF8FFF78DFF200057
:103FC000082229002560A560656025616561A561FD
:103FD0005C3000F01BF96563A563A564E56420000F
:103FE000F8BD6834D7E704213800FFF74FFF041EFF
:103FF0003060D5D1FFF770FF0C233B60EFE7C04680
:10400000DC7D00080100FFFF10B5FFF75DFF034BEB
:104010000349186800F014F810BDC04604000020E1
:104020005D3E000810B5044B0449186800F008F81C
:10403000FFF752FF10BDC04604000020753E000887
:10404000F7B54830040000260191A5686768013F74
:1040500004D52468002CF8D13000FEBDAB89012BBB
:1040600007D90E22AB5E013303D02800019B98478D
:1040700006436835EBE7F7B5040006000027019119
:1040800048346368A5680093009B013B009304D506
:104090002468002CF5D13800FEBDAB89012B08D96E
:1040A0000E22AB5E013304D029003000019B9847FB
:1040B00007436835E8E7F030704700000048704774
:1040C0005801002000487047580100207047704791
:1040D0007047704770477047012070470120704754
:1040E0007047704770B50E001D000E23C95E1400A6
:1040F00096B0002908DA0C22B35E00222A601B0663
:1041000011D48023DB000FE06A4601F09DFA0028FD
:10411000F1DBF02301991B021940054BC9184B42F2
:1041200059412960EDE740230020236016B070BD9F
:1041300000E0FFFFF7B502268B8905000C00334233
:1041400006D0230047332360236101236361F7BD59
:104150006A4601ABFFF7C6FF00990700280000F090
:10416000D9FD002808D10C22A35E9A05EFD40322C2
:1041700093431E43A681E4E70F4BAB628023A289E1
:1041800020601343A381009B20616361019B002B8E
:104190000DD028000E23E15E01F0D0FB002806D0F0
:1041A0000322A38993431A0001231343A381A08907
:1041B0000743A781CBE7C0464D3E000810B5034B2F
:1041C0000100186800F0A6FD10BDC04604000020E4
:1041D00010B5034B0100186800F030FD10BDC0465B
:1041E00004000020C9B28218904201D1002070471B
:1041F00003788B42FBD00130F6E7002310B59A42DA
:1042000000D110BDCC5CC4540133F8E70300821820
:10421000934200D1704719700133F9E770B5456AD0
:1042200006000C00002D0ED11020FFF7C7FF021E64
:10423000706204D16621194B194801F0B3F9456049
:1042400085600560C560756AEB68002B13D0736AE2
:10425000A200DB689B181868002818D101210D0006
:10426000A5406A1D3000920000F0BCFC00280CD074
:10427000446085600DE021220421300000F0B2FC92
:10428000736AE860DB68002BE1D1002070BD026832
:104290001A6000230361C360F8E7C046D57C0008BC
:1042A000E07D000870B5466A05000C00002E0ED1B6
:1042B0001020FFF783FF021E686204D18A21094B98
:1042C000094801F06FF9466086600660C660002C00
:1042D00007D06B6A6268DB6892009B181A682260DC
:1042E0001C6070BDD57C0008E07D0008F7B50E00AD
:1042F00001900C001D0000200F6914363368013056
:1043000099B251431B0C534349190D0C5B191D0CF9
:1043100089B21B045B1808C68742EFDC002D22D04F
:10432000A368BB4219DC63680198591CFFF776FF4C
:10433000061E05D10200B5210C4B0D4801F032F9E3
:10434000210023690C319A1C92000C30FFF755FFB5
:1043500021000198FFF7A6FF34003B1D9B00E318E6
:104360005D607B1C23612000FEBDC0466A7D0008A5
:10437000E07D0008F7B5060018000C0008300921A0
:1043800001931500FDF712FD0123002183420ADB92
:104390003000FFF743FF011E08D10200194B1A48F5
:1043A000CE3101F0FFF85B000131EFE7089B43617C
:1043B00001230361092D18DD230009331F00009339
:1043C00064193B780A223000303BFFF78FFF01373A
:1043D0000100A742F5D12C00009B083C1C192F00BE
:1043E000019B9F4204DB0800FEBD09250A34F6E765
:1043F000631BDB5D0A223000303BFFF777FF01379C
:104400000100EDE76A7D0008E07D00080300020C72
:104410000020824201D11B0410301A0E01D1083055
:104420001B021A0F01D104301B019A0F01D1023077
:104430009B00002B03DB01305B0000D42020704781
:10444000036802000721180008400B420DD006390E
:1044500000200B4205D10230034203D0CB400800BC
:10446000136070479B081360FBE799B2002901D1E4
:1044700010201B0CD9B2002901D108301B0A1907E2
:1044800001D104301B09990701D102309B08D907DB
:10449000E9D401305B08E6D12020E2E710B50C003A
:1044A0000121FFF7BBFE002806D1A0210200044B2A
:1044B0000448490001F076F801234461036110BD0E
:1044C0006A7D0008E07D0008F0B50B6914001269F0
:1044D0000D0089B0934201DA25000C002F6926698E
:1044E0006968BB190293AB68BA19934200DA0131CB
:1044F000FFF794FE0190002806D15E210200484B90
:104500004848FF3101F04EF8019B002214339C46CD
:10451000BB199B0063440393634603998B422CD3DE
:104520002B0022001433BF0014320693B600DB19AF
:10453000049393190793042305932B0004991533CF
:104540000092994205D34B1B153B9B0801339B00FE
:104550000593079B009A9A4211D3029B002B06DD1C
:10456000039B043B03931B680093002B53D0019BD8
:10457000029A18001A6109B0F0BD04C3CDE7009B90
:104580001B6898B200281BD067460024069E02CE06
:104590003A688BB2434392B29B181B190C0C4443EC
:1045A0003A68110C61181C0C09190C0C9BB2090417
:1045B0000B4308C7049BB342E9D86346059A9C5055
:1045C000009B1B681E0C20D063462C006046002711
:1045D0001B68143422689BB291B271430268120CBA
:1045E0008918CF1939040B43036002CC4368090CC6
:1045F00071439BB23F0CCB18049ADB191F0C04309B
:10460000A242E7D8624605995350009B04330093B9
:1046100004239C449DE7029B013B02939DE7C04617
:104620006A7D0008E07D0008F7B503231500070048
:104630000E001A401D4208D02549013A92005258F6
:1046400000233100FFF752FE0600AD103DD07C6A1A
:10465000002C0FD11020FFF7B1FD021E786205D1AA
:10466000D7211C4B1C48490000F09CFF446084602B
:104670000460C4607B6A9C680193002C08D13800F8
:104680001649FFF70BFF019B0400986000230360AD
:1046900001231D420AD0310022003800FFF714FF29
:1046A000310001903800FFF7FDFD019E6D100CD028
:1046B0002068002807D1220021003800FFF704FFFE
:1046C0000023206003600400E2E73000FEBDC04626
:1046D000787F0008D57C0008E07D000871020000AA
:1046E000F0B50C0017002369551187B0EB18029341
:1046F000013301934968A3680490019A934210DB47
:104700000498FFF78BFD0023020006001900143205
:1047100098420CD1DA210200264B2748FF3100F0E5
:1047200041FF01315B00E8E7980011500133AB42D3
:10473000FADBEB43DB171D401F2123003800AD00DF
:104740005519226914339200084084469A180F4282
:104750002AD00131091A059100210395674618688E
:10476000B8400143039802C002CB03900598C140B2
:104770009A42F3D8200015300423824204D3131B3D
:10478000153B9B0801339B00E950002902D0029B96
:1047900002330193019B0498013B21003361FFF731
:1047A00081FD300007B0F0BD02CB02C59A42FBD8B4
:1047B000F0E7C0466A7D0008E07D000802690B69E9
:1047C00030B50400D01A9A420DD19B001434143134
:1047D000E218C918043A043915680B689D4203D0E1
:1047E00001209D4203D330BD9442F3D3FBE7404206
:1047F000F9E70000F0B50E0007001100300087B0A7
:104800001400FFF7DBFF051E10D101003800FFF791
:1048100005FD021E04D1404B4049414800F0C2FE54
:10482000012345610361100007B0F0BD012301932E
:10483000002804DB230034001E000023019338000D
:104840006168FFF7EBFC021E03D19021324B890017
:10485000E3E7019B0027C360206914340194019BA6
:1048600084001B19340002933369143499006318CF
:104870000393130014339C460593019B0493049BFC
:1048800002CC20CB0493ABB2DF198BB2FB1A090C1C
:104890002D0C6D1A19146D1861462F149BB22D043E
:1048A0002B4308C1039B8C46A342E8D83100039CEC
:1048B000153104238C4204D3A31B153B9B08013301
:1048C0009B000199CC1805992600CB189C460299AB
:1048D0008E4210D3029EE11E00258E4204D3310089
:1048E00003310C1BA408A5005B19043B19680029BF
:1048F0000FD0106197E702CE8DB2ED190F0C29147D
:1049000079180F14ADB209040D43614620C18C46DD
:10491000DDE70138E9E7C0466A7D000832020000A1
:10492000E07D00080F4B19400F4BC918002904DD2A
:1049300000220B001000190070474942002200239A
:104940000915132904DC8020000308410300F1E766
:10495000143901201E2902DC80200006C840020014
:10496000E8E7C0460000F07F0000C0FCF7B5060095
:10497000036914369B00F3181D1F2C680F002000DC
:104980000193FFF743FD20231B1A1F493B600A28B0
:1049900016DC0B2327001B1ADF4039439C460B0013
:1049A0000021AE4202D201990839096815308440CD
:1049B0006046C1400C4322001000190003B0F0BD56
:1049C0000027AE4202D2019D083D2F680B235B42B7
:1049D0009C4684440B2813D0634620209C40C01A78
:1049E0003B00C3401C4321430B000021B54201D9C9
:1049F000043D29686446C140A7400F433A00DBE705
:104A000021430B00FAE7C0460000F03FF7B5012153
:104A100014001E00089FFFF701FC051E05D10200CF
:104A2000264B2749274800F0BDFD330376001B0BBA
:104A3000760D24D10193002C27D068460094FFF70F
:104A4000FFFC009C00281ED0019B20211A00091A9F
:104A50008A40C34022436A610193019CAC61631E9A
:104A60009C4101342C61002E18D0174BF6183523C9
:104A70003618181A099B3E6018602800FEBD802277
:104A800052031343D6E76C61E7E701A8FFF7D8FCB0
:104A90000124019B2C616B612030E4E70B4BC018B3
:104AA0000B4B3860E3189B00EB185869FFF7AEFC1E
:104AB0006401099B241A1C60DFE7C0466A7D000878
:104AC0000A030000E07D0008CDFBFFFFCEFBFFFFE7
:104AD000FFFFFF3FF0B587B00F0004A90600FFF706
:104AE00045FF00900191009C019D380005A9FFF74A
:104AF0003DFF02900391029A039B31693869059E3C
:104B0000081A04994001891B41180805002907DD8E
:104B1000019945182000290001F0EAFC07B0F0BD1A
:104B200003990B1AF6E7000010B50400172805DCFE
:104B3000074CC00024182068616810BD002005499A
:104B40000022054B013C02F0D5F8002CF8D1F4E727
:104B5000887E00080000F03F0000244070B514007B
:104B600005000139136949110131890014349B0092
:104B70004118E318A3420DD81400113400259C42BB
:104B800003D89B1A113B9B089D00002340198142CA
:104B900003D870BD40CC40C5ECE708C0F7E7020081
:104BA000006910B514324B11984213DB0CDD1F2441
:104BB00008002040214207D099008C582100C140B4
:104BC000814001208C4204D19B00D318934203D82A
:104BD000002010BD0300F7E7043B19680029F5D059
:104BE0000120F6E770B5130C0D0C1ED1002B0CD173
:104BF00089B294B24C43210000F08CF8051E1BD002
:104C000022000021FFF702FB16E01D1C0B1C92B2D4
:104C100089B29CB25143ABB263430C0C1C19220CF9
:104C200007D1240489B20C43E5E7002B01D1131C02
:104C3000EDE70C2300250360280070BD70B505006A
:104C4000002910D00C1F2368002B00DAE41828007C
:104C500000F0FCFE1D4A1368002B05D16360146050
:104C6000280000F0FBFE70BDA34208D9216860183F
:104C70008342F3D118685B6841182160EEE71A009F
:104C80005B68002B01D0A342F9D911685018A042EB
:104C90000BD120680918501811608342E0D11868C0
:104CA0005B68411811605360DAE7A04202D90C2317
:104CB0002B60D5E721686018834203D118685B68D0
:104CC0004118216063605460CAE7C0465403002065
:104CD00070B50F4E0D0031680400002902D100F0BC
:104CE000EDFB30602900200000F0E8FB431C0AD0F7
:104CF0000323C51C9D43A84207D0291A200000F0B9
:104D0000DDFB431C01D101256D42280070BDC0466A
:104D100058030020F7B50322CB1C93430833060049
:104D20001F000C2B32D20C27B94231D8300000F0D2
:104D30008DFE324D2B681C00002C2ED13900300026
:104D4000FFF7C6FF0400431C1ED12C682500002D70
:104D50004AD123682900E3183000019300F0AEFB2C
:104D6000019B834243D123680337FF1A03239F43E8
:104D700008370C2F00D20C2739003000FFF7A8FFAE
:104D8000431C34D02368DF19276013E0002BCBDAF3
:104D90000C23002533602800FEBD2268D11B20D4DF
:104DA0000B2917D9E2192760A34211D12A60636841
:104DB000116053603000250000F050FE07220B35D3
:104DC000231D9543EA1A9D42E5D05B1BA350E2E701
:104DD0005A60ECE76268A34201D12A60EAE75A60B0
:104DE000E8E723006468A7E72C006D68AFE70C23B1
:104DF0003000336000F032FECDE7C046540300209F
:104E0000F0B58E6885B007000C00039201939E42B6
:104E10003CD890238A89DB001A4234D00969236880
:104E200060695B1A029303234343DD0FED18019B76
:104E3000029801331B186D10AB4200D91D005305B9
:104E400032D529003800FFF765FF061E09D10C2373
:104E50003B6040230120A28940421343A38105B057
:104E6000F0BD029A2169FFF7C8F9A389144A1A40D4
:104E700080231343A381029B2661F6182660656197
:104E8000019EED1AA560019B9E4200D9019E320051
:104E90000399206800F0C6FDA36800209B1BA36057
:104EA00023689E192660DAE72A00380000F0DEFD4C
:104EB000061EE0D138002169FFF7C0FEC7E7C046F3
:104EC0007FFBFFFFF0B5936887B00C0017000290DE
:104ED000002B65D013680393002305930193019B76
:104EE000002B2DD0A6689E4249D89023A289DB00D2
:104EF0001A4241D00320216923685B1A0493636935
:104F00004343DD0FED18049B019801331B186D100E
:104F1000AB4200D91D00530546D529000298FFF782
:104F2000F9FE061E16D10C23029A012013604023BD
:104F3000A28940421343A3810023BB607B6031E020
:104F4000039B1B680593039B5B680193039B0833DA
:104F50000393C4E7049A2169FFF74FF9A389184A1C
:104F60001A4080231343A381049B2661F618266010
:104F70006561019EED1AA560019B9E4200D9019ECC
:104F800032000599206800F04DFDA368019A9B1B33
:104F9000A36023689E19BB6826609B1ABB60CFD1B3
:104FA0000020786007B0F0BD2A00029800F05EFD96
:104FB000061ED9D121690298FFF740FEB3E7C0462B
:104FC0007FFBFFFFF0B5A1B003901D008B890F00A0
:104FD00016001B0611D50B69002B0ED14021FFF7DF
:104FE00099FE38603861002805D10C23039A0138F6
:104FF000136021B0F0BD40237B61002308AC6361E6
:10500000203363761033A376079535002B78002B79
:1050100001D0252B47D1AB1B0593B5420CD03200F4
:1050200039000398FFF7ECFE431C00D1AEE0626943
:10503000059B9446634463612B78002B00D1A5E067
:10504000012200235242626004A9543252186E1C9D
:105050002360E360A3601370A36505223178544890
:10506000FFF7C0F8751C00281FD12268D30604D5AD
:10507000532304A95B1820211970130704D5532367
:1050800004A95B182B21197033782A2B16D0350010
:1050900000210A20E3682A786E1C303A092A4ED98A
:1050A000002911D117E00135B0E7414B2268C01A41
:1050B0000123834013432E002360CEE7079B191D75
:1050C0001B680791002B01DB0B9304E05B42E3605C
:1050D0000223134323602B782E2B0AD16B782A2BC3
:1050E00035D1079B02351A1D1B680792002B2BDB5D
:1050F0000993304E032230002978FFF773F8002817
:1051000006D04023801B834022680135134323606F
:105110002978062228486E1C2176FFF763F80028BC
:105120003CD0264B002B25D10722079B0733934306
:10513000083307936369049A9B18636165E74343E7
:10514000350001219B18A6E701235B42D0E700232D
:105150000A201A000135636029786E1C303909294C
:1051600003D9002BC5D00992C3E742433500012380
:105170005218F1E707AB00933A002100104B039857
:10518000FDF72EF90490049B0133D3D1BB890D9810
:105190005B0600D42DE7012040422AE707AB0093CD
:1051A0003A002100064B0398FDF7CCFBEAE7C04626
:1051B000847F00088A7F00088E7F0008E1230008B2
:1051C000014E0008936810B5013B9360002B04DA90
:1051D0009469A34207DB0A2905D01368581C1060A4
:1051E0001970080010BDFDF7ADFD0100F9E7F8B535
:1051F00006000F001400D518AC4201D1002007E0D2
:1052000021783A003000FFF7DDFF0134431CF3D171
:10521000F8BD936810B51400002B02D1180053603C
:1052200010BD00F023FA0023A3606360F8E70000DC
:10523000F0B5A1B006000C001F000392002804D0B6
:105240008369002B01D1FEF75FFE8E4B9C421CD17F
:105250007468636EDB0705D4A3899B0502D4A06D37
:10526000FEF739FFA3891B0702D52369002B1DD147
:1052700021003000FDF7C6FD002817D0636EDB0764
:105280000DD50120404221B0F0BD7F4B9C4201D1A1
:10529000B468DEE77D4B9C42DBD1F468D9E7A38993
:1052A0009B05EED4A06DFEF71CFFEAE7002308ADD6
:1052B0006B6120336B761033AB760797039F3B7897
:1052C000002B01D0252B4ED1039BFB1A0593039B8A
:1052D0009F420DD0059B21003000039AFFF787FF06
:1052E000431C00D1B5E06A69059B944663446B6139
:1052F0003B78002B00D1ACE001227B1C0393002300
:1053000052426A6004A9543252182B60EB60AB60C1
:105310001370AB65039B052219785D48FEF762FFA9
:10532000039B5F1C002820D12A68D30604D5532391
:1053300004A95B1820211970130704D5532304A96D
:105340005B182B211970039B1B782A2B16D0002188
:10535000EB68039F3A78781C303A8446092A4FD983
:10536000002911D117E00137A9E7494B2A68C01A73
:105370000123834013432B600397CBE7079B191D41
:105380001B680791002B01DB0B9304E05B42EB6091
:10539000022313432B603B782E2B0AD17B782A2BD8
:1053A00037D1079B02371A1D1B680792002B2DDB94
:1053B0000993032239783748FEF714FF002807D0F5
:1053C000344B2A68C01A40238340134301372B60B3
:1053D00039787B1C0622304803932976FEF702FFBA
:1053E000002845D02D4B002B27D10722079B0733E0
:1053F0009343083307936B69049A9B186B615DE7CD
:105400000A214B4367469B180939A3E701235B42F6
:10541000CEE700231A0001376B603978781C3039E9
:105420008446092903D9002BC3D00992C1E70A2376
:105430005A4367465218093BEFE707AB0093220037
:1054400029003000164BFCF7CBFF0490049B01337E
:10545000D1D1636EDB0705D4A3899B0502D4A06D6F
:10546000FEF73FFEA3895B0600D50AE70D980AE721
:1054700007AB0093220029003000094BFDF762FAC8
:10548000E3E7C0469C7D0008BC7D00087C7D0008E9
:10549000847F00088A7F00088E7F0008E1230008CF
:1054A000EF51000810B513000A000100024800681F
:1054B000FFF7BEFE10BDC04604000020002370B5FB
:1054C000064D040008002B60FCF772F8431C03D162
:1054D0002B68002B00D0236070BDC0464403002021
:1054E00070B50C000E25495F00F0F0FA002803DBD0
:1054F000636D1B18636570BDA389024A1340A381C5
:10550000F9E7C046FFEFFFFF00207047F8B51F0026
:105510008B8905000C001600DB0505D50E23C95E3E
:105520000022022300F04EFAA389054A2800134006
:10553000A38132000E23E15E3B0000F01FF8F8BDAE
:10554000FFEFFFFF70B50C000E25495F00F03AFA3F
:10555000A389421C03D1054A1340A38170BD802258
:1055600052011343A3816065F8E7C046FFEFFFFFD8
:1055700010B50E23C95E00F039F810BD70B50400F7
:10558000080011001A000023054D2B60FCF77EF87F
:10559000431C03D12B68002B00D0236070BDC04694
:1055A0004403002030B514001A00094B05001B68A5
:1055B00085B0D868074B002C01D1074B1C00019324
:1055C00000912B000549029400F02EF800F0B1FA8A
:1055D00004000020957F0008D07F0008A27F00080B
:1055E000130010B50022FFF7DDFF0000002370B5A7
:1055F000064D040008002B60FBF729FF431C03D174
:105600002B68002B00D0236070BDC04644030020EF
:105610000CB407B504AB04CB0193FFF709FE03B04C
:1056200008BC02B0184700000EB403B5010003AB7C
:10563000044804CB00680193FFF7FAFD02B008BCF0
:1056400003B0184704000020002370B5064D040085
:10565000080011002B60FBF721FF431C03D12B68CE
:10566000002B00D0236070BD44030020F0B5936888
:1056700087B00C0017000390002B02D1002007B068
:10568000F0BD8B891B0759D50B69002B56D03B68A1
:1056900002220293A38918001040134275D10122FF
:1056A00001211A400B4200D1ADE0060001900490A8
:1056B000049B002B00D116E100280CD11A000A210E
:1056C0003000FEF78FFD049B01330193002802D0C8
:1056D0000130831B0193019B049A0593934200D9E7
:1056E0000592206822696369904200D804E1A268AB
:1056F0009D18059AAA4200DCFEE031002A0000F065
:1057000091F9236821005B1903982360FEF724FBBD
:10571000002873D1019B01205B1B019305D121005F
:105720000398FEF719FB002868D1049B76195B1BD0
:105730000493BB685D1BBD60BAD19FE7210003984D
:10574000FDF760FB0028A2D00120404297E7029BB2
:105750001B680193029B5D6808330293002DF6D00D
:10576000724A2B00954200D91300019A216A0398CE
:10577000A66AB047002841DD019B2D1A1B18019332
:10578000BB68181AB860E9D178E700231D000193BF
:10579000E4E7029B1B680493029B5B680193029BF6
:1057A00008330293019B002BF3D08023A2899B0036
:1057B0002068A5681A4264D0019B9D4238D8902386
:1057C000DB001A4234D02169431A03200593636930
:1057D0005843059BC60F3618019801331B187610E5
:1057E000B34200D91E0053053CD531000398FFF7A2
:1057F00091FA051E0AD10C23039A13604023A28953
:105800001343A381A0E704920192CBE7059A216993
:10581000FEF7F3FCA389464A1A4080231343A38171
:10582000059B2561ED1825606661019DF61AA6604D
:10583000019EB54200D935002A000499206800F085
:10584000F1F8A3685B1BA36023685D192560049BC6
:105850009B190493019B9B1B0193BB689E1BBE601D
:10586000A0D10BE73200039800F000F9051ED7D154
:1058700021690398FFF7E2F98022A3899343A3816A
:10588000B9E72369834203D36669019B9E4217D916
:10589000019B9D4200D91D002A00049900F0C2F826
:1058A000A36822685B1B52192E00A3602260002BA4
:1058B000CDD121000398FEF74FFA0028C7D09DE70D
:1058C000019A1C4B10009A4200D91B483100FCF78A
:1058D0006DFA3300049A4343216A0398A56AA847E6
:1058E000061EB4DC8AE7029B00201E685B680493F6
:1058F000029B08330293DBE6059A934208DCA56A13
:105900003200216A0398A847051E00DD02E775E70B
:10591000059A310000F086F8059AA36815009B1AD5
:10592000A36023689B182360F4E6C04600FCFF7F59
:105930007FFBFFFFFEFFFF7FFFFFFF7F002370B5B0
:10594000064D040008002B60FBF71EFE431C03D12C
:105950002B68002B00D0236070BDC046440300209C
:1059600070B5141E0B4D01D1280070BD10000A49FE
:1059700000F0C0F80028F7D02900200000F0BAF8A5
:105980000028F1D02000054900F0B4F80028EBD041
:105990000020EAE7D17F0008D37F0008D07F00080D
:1059A0009423024A5B00D05C7047C0466800002028
:1059B00010B5034B0A0001001868FFF7D1FF10BDB6
:1059C0000400002070B50400080011001A00002334
:1059D000054D2B60FBF796FD431C03D12B68002B74
:1059E00000D0236070BDC0464403002037B5069D3B
:1059F000024C0095E4342468A0473EBD68000020B6
:105A000082B0002900D101A9101E06D0002B06D0BB
:105A100013780B601078431E984102B07047022043
:105A20004042FAE710B5884202D98B18984203D356
:105A3000002307E08B5C8354013AFBD210BDCC5CA1
:105A4000C45401339A42FAD1F8E7000010B5024875
:105A5000FEF741FB10BDC0464D03002010B50248C3
:105A6000FEF73FFB10BDC0464D030020F7B5070011
:105A70000E001400002905D11100FFF74BF90500B5
:105A80002800FEBD002A03D1FFF7D8F82500F7E76C
:105A900000F056F80190844203D835004308A34231
:105AA000EED321003800FFF735F9051EE8D0019B41
:105AB00022009C4200D91A0031002800FEF79DFB0D
:105AC00031003800FFF7BAF8DAE7000070B50400DB
:105AD000080011001A000023054D2B60FBF79AFD0A
